:04000000FAEF00F023
:08000800046ED8CF05F0E0CF33
:1000100006F00001E9CF0CF0EACF07F0E1CF08F0DD
:10002000E2CF09F0D9CF0AF0DACF0BF0F3CF12F01C
:10003000F4CF13F0FACF14F000C00EF001C00FF0AF
:1000400002C010F003C011F09DA02AEF00F09EB096
:100050004BEF00F00EC000F00FC001F010C002F036
:1000600011C003F00CC0E9FF07C0EAFF078E08C00B
:10007000E1FF09C0E2FF0AC0D9FF0BC0DAFF12C0DE
:10008000F3FF13C0F4FF14C0FAFF045006C0E0FFF2
:1000900005C0D8FF10001806185203E1172A130EE6
:1000A000186E9E902AEF00F0507265737320616E97
:1000B00079206B657920746F20626567696E2E0AFE
:1000C0000D0025752076616C7565310A0D00507242
:1000D00065737320616E79206B657920746F20736E
:1000E000746F702E0A0D00002575207365636F6EA6
:1000F00064732E0A0D000900F5520DE0F6CF1AF0D8
:10010000F7CF1BF0F5509EA8FED7AD6E1AC0F6FFD4
:100110001BC0F7FFF0D712001D50016A1C5C03E200
:100120001CC000F00CD0006A080E1E6E1C36003693
:100130001D50005CD8B0006E01361E2EF7D712009D
:1001400001501AC01CF0640E1D6EE6DF00C01AF0EC
:100150000150300E07E11BA20DD01BB60BD01BB80F
:10016000200E03D01B961B981B80012601509EA8D1
:10017000FED7AD6E1AC01CF00A0E1D6ECDDF00C09A
:100180001AF00150300E06E11BB609D01BA007D0B3
:100190001BB8200E012601509EA8FED7AD6E300E72
:1001A0001A261A509EA8FED7AD6E12000900F6CF8F
:1001B0001BF0F7CF1CF0F5509EA8FED7AD6E1BC00C
:1001C000F6FF1CC0F7FF1A2EF1D71200EA6A1B0EC9
:1001D000E96EEF500DE0060E016E006A002EFED7AC
:1001E000012EFBD77B0E006E002EFED7EF2EF3D72D
:1001F00054EF01F0F86AD09E078E166AB886080E92
:10020000AF6E020EB06EA60EAC6E900EAB6EC1500D
:10021000C00B0F09C16E94948B940C0EBD6E000E32
:100220000609CA6E180ECB6E130E186EA50ECD6E93
:10023000CF6ACE6A9D80C00EF212176A196AA80EA4
:10024000F66E000EF76E57DF1750030801E1192A0A
:100250001950640801E2196A19C0BEFF19C01AF0EA
:100260001B0E1B6E6DDFC40EF66E000EF76E090ED0
:100270001A6E9CDF1750050801E2176ACE0EF66E63
:10028000000EF76E38DF17C01AF01B0E1B6E58DF1A
:10029000EA0EF66E000EF76E0B0E1A6E87DF020E78
:1002A0001A6E960E1B6E92D71A2EFBD7C8D7030074
:020000040030CA
:0E00000000C21E1E008691000FC00FE00F40D0
:00000001FF
;PIC18F2480
;CRC=7615  CREATED="21-Mar-18 19:26"
